:020000040020DA
:20200000C0420020DD3D2000BF592100BD592100BD592100BD592100BD592100000000004F
:20202000000000000000000000000000BD592100BD59210000000000BD592100035821007F
:20204000155821001B582100215821002758210000000000095821000F582100BD592100E3
:20206000BD5921000000000000000000000000000000000000000000BD59210000000000F2
:202080000000000000000000BD592100BD592100BD592100BD592100BD592100BD592100F6
:2020A000BD592100BD592100BD592100BD592100BD592100BD592100BD592100BD59210068
:2020C000BD592100BD592100BD592100BD592100BD592100000000000000000000000000ED
:2020E000000000000000000000000000000000000000000000000000F13A2000013B200039
:202100000000000000000000000000000000000000000000000000000000000000000000BF
:2021200000000000000000000000000000000000000000000000000000000000000000009F
:2021400000000000000000000000000000000000000000000000000000000000000000007F
:2021600000000000000000000000000000000000000000000000000000000000000000005F
:2021800000000000000000000000000000000000000000000000000000000000000000003F
:2021A00000000000000000000000000000000000000000000000000000000000000000001F
:2021C0000000000000000000000000000000000000000000000000000000000000000000FF
:2021E0000000000000000000000000000000000000000000000000000000000000000000DF
:202200000000000000000000000000000000000000000000000000000000000000000000BE
:2022200000000000000000000000000000000000000000000000000000000000000000009E
:2022400000000000000000000000000000000000000000000000000000000000000000007E
:2022600000000000000000000000000000000000A94D2000D5392000F9392000B5292000CA
:20228000693C200065252000BD59210013B5184C002000F0C3F9012000F0C0F9214600204F
:2022A00000F088FA02F09AFE204602F091FE0122104B104604210093052301F033FD04F072
:2022C00059FE002004F092FC01F0AAFB00F09AFB00F0B6FB0821084801F0DEFC04F056FDBE
:2022E00062B6002002B0BDE8104013F03FBA00BF2D6F2000A0860100A03A002073B51A4BDA
:202300001B68022B07DD194A19491A4806F026FC194814F0C8F86846082101F0BDFC174EDF
:202320009DF806309DF80750F46A45EA03254AF6CD310220A04729460320A0471A21012015
:20234000A0470822736B69460B20984713F046FA00F03AF800210A4804F0F0FA042013F0F8
:2023600005FA02B070BD00BFF4050020A46F2100AD6F2100B26F2100C16F21004C6B2100CB
:20238000100600200022024B1A6001221A62704720C00D40054B1A6842F008021A601A6891
:2023A00042F010021A60FFF7EDBF00BF00C40D40044B1B68C3F3072013F4704F04BF103075
:2023C000C0B270471C300D4008B5FFF7F1FF014B1B6808BD1C300D402DE9F84300F084F8AE
:2023E00010490246D1E90045AC46A04238BF05F1010C6346C1E900230B48D0E90089B8EBC1
:20240000040169EB05048E1844EB0C07C0E9006704F0D8F818B1BDE8F84304F057B8BDE84D
:20242000F88300BF1808002010080020E0210D4B0D4A5A600D4A82F82310002207219A6038
:2024400019600B490B6843F001030B60094B1A60042243F80C2C012243F8082C0F22DA6234
:20246000704700BF10E000E047E8010000ED00E008200D400C000340034BD3E90023100A0E
:2024800040EA0360704700BF18080020034BD3E90023D00B40EA4340704700BF1008002096
:2024A000054B186053F81C2C1C3B42F001021A601A68D207FCD470472800034010B5064C57
:2024C000236823F001032360FFF786FF236843F00103236010BD00BF10E000E0014B1868EF
:2024E000704700BF20080020064B18685A6808331B681B0443EA0223034A0343106843EA24
:202500000060704740500D404C500D40014608B5104A1368DB07FCD572B6FFF7E5FF0B1A2B
:20252000062BD8BFC11D0C4B0A0E1A60C1F3074243F8042CC1F3072243F8082CCAB243F8A1
:202540000C2C62B6054B19604FF40032044B1A6108BD00BF50500D404C500D402008002081
:2025600000E100E008B501F0E7FA0022084B1A604FF40032074BC3F89021C3F89020BFF3CC
:202580004F8FBFF36F8FBDE8084004F00DBA00BF2008002000E100E0064B1B681B075FBF29
:2025A000054B186880F00800C0F3C00048BF0020704700BF18C0004018D000402C23154AD5
:2025C00070B503FB00234FF6BF72DC680546236C626413F050020DD00F4EA369DB0600D50A
:2025E00070BD56F825301BB12068C0B29847F4E72368F2E713F4D06FF2D04FF440732363A3
:20260000FF236360E36AE262E362236B43F001032363E5E7E46A2100240800202DE9F04FD8
:202620000128064685B000F2B4802C2545435A4F7C1994F92090B9F1000FC0F2AA8094F954
:2026400022B0BBF1000FC0F2A4804FF00008534801F0E6FA524978590A6894F921A00243F3
:202660000A604A686068E56802434A608A68A06894F9233002438A6022690AEBC901C5F82A
:20268000C88F116094F823105FFA8BF0227D0193CDE9020100F044F9DDE90201082200F0E3
:2026A00035F901233F494FEA0B32019852F801C003FA00FB4BEA0C0050504FEA093959F881
:2026C000012003FA0AFA4AEA020249F801205022AA63AA6B94F9240042F4D062AA63022260
:2026E0006A634FF440722A63A26940456A62E269AA624FF07002EA620D4614DB94F92510D7
:20270000294A41EAC0041460020354598B4023435351C9B24246C0B200F0F8F8234A13681F
:2027200043F4004313602C2303FB067393F92640002C1BDB93F827905FFA84F80122494609
:20274000404693F927A000F0EBF801232403625903FA0AF31343635108224946404600F094
:20276000D5F8124A136843F4804313602C2000FB0676F268136B43F00103136396F828301A
:202780000122590903F01F0302FA03F3084A42F8213005B0BDE8F08FE46A210099252000AA
:2027A00028200D4020940D4004410D4030D0004000E100E001289CBF014B43F820107047FE
:2027C00024080020012808D82C22044B02FB0030C3689A699206FCD419607047E46A2100A5
:2027E0000022014B1A60704700500D400822014B1A60704700500D40A022024B1A6050225E
:202800001A60704700500D4072B60B22014B1A60FEE700BF00500D40014A024B9A60704745
:202820000020200000ED00E038B5164D164C2B68012223F040032B602368062123F040033A
:202840000320236000F062F82B68012223F080032B602368072123F080032360032000F0D2
:2028600055F80A4B0A4A0B491A600B4A134610680842FCD11A685101FCD41A685201FCD50D
:2028800038BD00BF20C40D4000C40D4000200D40010102000000010104200D400822014BE8
:2028A0001A60704774200D402DE9F0410546DFF83C8001F041F90B4B2E03F75856F808404A
:2028C000ED00EC4047EA0400C0B2A84004F0DAFBE4B2054BFFB2AC40F75046F80840BDE892
:2028E000F08100BF18940D401C940D4018970D40034B044A1A60044B803A1A60704700BFA7
:202900002C08002080400D4030080020034B01EBC0011B6843F82120704700BF2C0800203A
:20292000034B01EBC0011B6843F82120704700BF300800200E2870B506460BD1134B1C686A
:2029400044F0020018601248056825F03F0343F0010303600F48036823F0FF031A43114389
:2029600031430D4A016013681B06FCD50B4B0C4A1B68106803F0FC0343EA00230E2E18B2CF
:2029800001BF034B1D60014B1C6070BD34000144F486084008700D4000700D400C700D4031
:2029A00010700D40024B1868B0FA80F04009704700B708404FF40042084B10B5C3F890215B
:2029C000C3F89020BFF34F8FBFF36F8F044C206818B103F0CBFF0023236010BD00E100E0BA
:2029E00034080020064A136843F002031360536843F002035360936843F002039360704782
:202A000048200D4007B50C4801F00AF9FFF7EAFF0A4B1A6842F002021A6000220192019A47
:202A20000F2A06DD1A6822F002021A6003B05DF804FB019A0132F1E7A529200054200D400C
:202A4000064A136823F002031360536823F002035360936823F002039360704748200D4028
:202A6000014B1860704700BF340800202DE9F04F3E4DA3B001932F6880460E461446002FBF
:202A800072D1022959D14FF0180A4FF0480B0DF10809BC4242DC6400022EE4B205D0482316
:202AA0004146DB69220102A898470123304A3149136003223048314F0A602B6002603968FF
:202AC0000A40B2421A461EBF21F003010E433E600199A340013B8B40294E2A49A6F5806688
:202AE0000B60C6F800343260274A02AE1660274E3268120C120442EA04123260244A14684F
:202B0000E407FCD51468002C1ADA4FF000430360002304202B6023B0BDE8F08F18224846E7
:202B20000AFB0781DBF81C309847002200230137C9E9062309F12009ABE70129AFD0AAE7C3
:202B4000126812F0804206D04FF080430360002306202B60DFE7032404602A600A68934305
:202B60000CBF00200620D6E70320D4E700B7084080B7084084B7084088B7084008B408401D
:202B800000B4084004B4084004B008400CB0084090B708402DE9F047464C844625689E4690
:202BA000DDF82880BDF82030BDF82C600C98002D7DD10127404D4FF002092F6003253F4FEF
:202BC0003D60C4F80090DFF81491BA46C9F800503B4D29604946D5F80090B9F1000FFADBF4
:202BE000384DD5F8009019F0005F07D04FF000530B60002305202360BDE8F0877AB1176826
:202C0000DFF8DC90C9F800705768C9F804709768C9F80870D2F80C902B4AC2F800904FF0B0
:202C200000092A4A1CF4E02FC2F800C05660C2F8089002F108021AD053600432BBB14FF0FB
:202C4000010CA2F25C52C2F800C0C2F804E0D3602B689B07FCD52B68002B06DA4FF00043B4
:202C60000B60002304202360C6E702230B600123CAF8003038B1FFF7F3FE4FF40042144B18
:202C8000C3F890211A610EB90020B5E70123114A136009990C3242F8081C1660B8F1000F6C
:202CA000F2D053610C4BC3F800809E60ECE70320A2E700BF00B7084080B7084084B70840CF
:202CC0000CB4084090B708404CB5084050B5084000E100E000B0084024B0084088B708406B
:202CE00040B50840034B1A68034B1A4214BF01200020704790B70840010000E0F8B5244BC6
:202D00004FF400421E684FF06043224F05463B6003F561430C46C3F89020BFF34F8FBFF3D4
:202D20006F8F0020FFF79CFE00221B4B96421A6027DB710027D4B20027D405B9ECB1174A34
:202D400013685B00FCD55DB1154B1B682B60154B1B686B60144B1B68AB60144B1B68EB6088
:202D60005CB1134B1B682360124B1B686360124B1B68A360114B1B68E360032300203B6059
:202D8000F8BD0420FCE70620FAE70520F8E700BF90B7084088B7084000B7084050B508404B
:202DA00040B5084044B5084048B508404CB5084070B5084074B5084078B508407CB508403B
:202DC0002DE9F0434FF048080D468BB09DF85C401746022C38BF0224002814BF4FF004096D
:202DE0004FF000094A1E8DF81820D6040DF11900C1F10F021946D8F81C3098472A46C5F132
:202E0000100006ADD8F81830002128449847189B023C0493BDF8583064100393159B46EABC
:202E200009060293149B08480193A405BDF84C30344300933946129B06AA2043FFF7AAFE9A
:202E40000BB0BDE8F08300BFC00104202DE9F8430F46012300F0070103FA01F64FEAD00933
:202E600017F00C036FEA0605DFF8A4804FEA093417D154F808302B4044F8083017F0030210
:202E800030D14846FFF742FD3A0654F808302FD42B4044F808301B4AA3581D40A550BDE871
:202EA000F883042B0BD1184AA3582B40A3500432A3582B40A3500432A35833430CE0082B7C
:202EC0000CD1114AA3582B40A3500432A3582B40A3500432A3582B40A350CFE70C2BCDD1B8
:202EE000094AE5E7022ACCD0012ACDD10422C8E7334344F808300120044B00FA09F0186088
:202F0000C9E700BF20940D4004940D4000E100E010940D4037B5114B05461C6814F0020489
:202F200001D1FFF75FFD102300212A46CDE9003101202B4612F07AFC08B1FFF7AFFC12F05C
:202F40008BFC431CFBD008B1FFF7A8FC24B903B0BDE83040FFF774BD03B030BD48200D404C
:202F600038B50B4B05461C6814F0020401D1FFF739FD0122002311462846FFF777FD08B109
:202F8000FFF78CFC1CB9BDE83840FFF759BD38BD48200D40014B1B68184700BF3C6B210056
:202FA0002DE9F04F14462A4A89B016689A4616F0020680460D46BDF84830DDF84C909DF8BD
:202FC0005070DDF854B003D10793FFF70BFD079BBBF1000F1BD00021CDE900354246534677
:202FE0000220CDE90471CDE9024512F064FC28B15EBB09B0BDE8F04FFFF722BDFFF772FE5B
:203000000028FBD03946484612F06FFCF0E73C44B4F5803F19DAA4B2CDE90035424653462F
:2030200059460220CDE9047BCDE9024512F063FC0028DDD1FFF756FE0028FBD03B464A4618
:203040002146284612F015FCD2E709B0BDE8F08F48200D400B4B1A689207FCD41B685B0618
:203060005EBFED22084B1A60084B1B6813B1EF22054B1A60064A0120137803F07F031370EE
:20308000704700BF4C860840388808402C860840C6250020044B186800F02200A0F12003FE
:2030A00058425841704700BF4C860840024B186800F04000704700BF4C860840074B93F9E2
:2030C0000020002A08DBED21054A1160E32111601A7862F07F021A7001207047C6250020AE
:2030E0003888084010B50A4B04461B6813F03F0302D0FFF7AFFF0123064904EB84022C3AD8
:203100000A600BB1FFF7DAFF034B1C7010BD00BF488608403C860840E007002010B50C4616
:20312000002900F09680182800F29580DFE800F00D1D20272940495C61767A9393937F81D9
:203140005983938587898B8D8F00444B186810F0FF0001D1206033E0414B1B6813F0030F2D
:203160000CBF0123022323601CE03E4B1B78FAE73D4B1A68043B1B6843EA0223F3E73B4B41
:20318000F7E700230B603A4B354A1B6803F001030B601268920644BF43F002030B60354BA2
:2031A0001B780BB900200BE00B6843F00403DAE70020314B08601B78002BF3D001230B602B
:2031C00010BD2E4B2E491A680023D2B201EBC3000079904202D851F83330C4E701330E2B71
:2031E000F4D16FF01703BEE7264B1B685BB2493BB9E7254B1B689B060ED1FFF75FFF0122DD
:203200002248036859B28031FBD0493B59B20AB1FFF720FF2160C5E70022F1E71C4B93F9D9
:203220000030A0E71B4B1B7803F07F039BE70B2399E71A2397E7072395E7032393E72023F5
:2032400091E70C238FE708238DE7002082E77D2389E70220B4E70120B2E700BF2C860840E9
:2032600024860840E0070020CC850840D485084000860840C5250020E1070020408608402D
:20328000846B2100588608404886084060860840C7250020C425002008B50B4B1B6899066A
:2032A0000FD1FFF70BFF012308490A68D207FCD5074A1168C1F300110BB1FFF7CBFE084645
:2032C00008BD0023F0E700BF48860840648608404C8608400B280DD1082A0DD161B1074B89
:2032E000074A083111F8010D43F8040B9342F9D1002070470120704702207047A885084047
:20330000C885084070B52E4E0246306810F0400007D02C4D2868040604D5ED2200202A4BF0
:203320001A6070BDC0B20428F7D902388842F4DCC4B2032C1ED12B6813702B6853702B6811
:2033400093702968214B493949B219702B68204D18062B70E1D589B2042004F0C5F9297846
:20336000032001F07F0104F0BFF91A4B1B78CBB12046D6E711190320013900F073FB164B30
:20338000611E032043EA011100F076FB032000F07DFB032000F092FB032000F09BFB0028EF
:2033A000FAD1CEE733685A06E2D533681B0603D50A4803F0DBFADBE7ED22034B1A60D7E7D6
:2033C0004C8608402888084038880840C7250020C4250020C525002002C0010CD0040020F1
:2033E0007D2938B505460C4623D8134A13689B07FCD4124B93F90030002B01DBFFF75EFEE6
:20340000EE220F4B02201A60A21C013C43F8102C291900F01FFB0B49022041EA041100F042
:203420002BFB022000F032FB022000F047FB002038BD0120FCE700BF4C860840C6250020D6
:203440003888084002C001C00B282DE9F0470C4610D1082A40F0828000297FD0404B414A3C
:203460004C1E53F80419934204F8011FF9D10020BDE8F0870C2867D1042A6FD100296DD043
:20348000394B3A491A68DFF8F88022F007021A600A68374F42F008020A60D8F800003A68AF
:2034A0001D68DFF8E0E0DFF8E0C025F070051D60DEF80050DCF80060C0B2120240EA066002
:2034C00092B202434FEA05492A4809F47F09D0F800A042EA09061A685FFA8AF522F00702CD
:2034E00042F001021A600A6842F008020A60D8F800203F68196821F0700141F010011960B0
:20350000DEF80010DCF800C0D3B23A0243EA0C6392B213430A04016802F47F0243EA020815
:203520005FFA81F9FEF7E0FFB6EB080165EB0905ED0307460023C8030F4A45EA514111F096
:203540008FFB3F1A276092E7122805D1042A05D121B10A4B0B608AE7012089E7022087E750
:20356000C4850840A48508401088084004880840188808401C8808400048E8018C6F210074
:203580001488084024880840208808407D28F8B543D8234B93F90030002B18DBFEF7A4FF16
:2035A0000446FFF78BFDC4F1FF2404F57F04F634FEF79AFFC442FBD401261A4B1B7843B947
:2035C000194C2368990609D502210846F8BD0026F3E7FFF761FE0028F2D1F5E7E922042508
:2035E000124F3A6023689A0703D4013D15F0FF050AD123689B070BD4EE2301213B60002EA3
:20360000E3D0FFF727FDE0E70620FEF749FFE9E7216811F00201FBD1F1E70121D5E700BF15
:20362000C6250020E10700204C86084038880840224B1870002836D0214A13681B03FCD55D
:20364000204B1A6842F002021A601A6842F001021A601A685007FCD51A6822F001021A60E1
:203660001A685107FCD41A6842F002021A601A6842F001021A601A685207FCD5124A1368BA
:2036800023F004031360D2F8A83123F00403C2F8A8314FF400520D4BC3F89020BFF34F8F65
:2036A000BFF36F8F7047084A136843F0040313604FF40052054B1A61704700BFC525002049
:2036C00004200D40048808408C86084000E100E02DE9F0412E4F3D7815F0010555D10124BB
:2036E000F8222C4B4FF07F081C605C609C60A3F59323A3F514731A600922C3F8902115228A
:203700001A670B22703303F59B2303F59E731A60A3F59B23A3F5A6731C604023D5221E4ED6
:203720003360336843F0200333601C4B1D60C3F848809A631A4B1878FFF7D4FC336823F0A5
:203740000C033360174BC3F800804FF48042164B1A61022000F0A6F91449022000F082F9AE
:20376000032000F09FF91149032000F073F9104B1878FFF75DFF0F48294603F0DFF8204692
:203780003B7823433B70BDE8F0810020FBE700BFC6250020A8200D402486084008860840A6
:2037A000E00700209486084000E100E028880840C5250020D004002038B50388044653B321
:2037C00040F25D42934233D11B4B18781A4638BB822923D1137873B903F030FF03F0C2FECB
:2037E0008021FFF78FFD002805DD80B203F09EFE124BDB689847124B1A7852060BD5002213
:203800001A70104B1D68FFF725FCFFF761FFAB0601D0FFF753FC40F25D43238001200AE08A
:203820001B78002BFAD0064B1B785806F6D5CFE700230380032038BDC52500206C6D21007B
:20384000C62500204886084013B50C460D2800F2A280DFE800F0074951585B777D90A0A015
:20386000A0A0A095012904D1FFF728FC002002B010BD11B9FFF7EEFBF8E78B1E012B00F2CC
:203880008C80002001A9FFF749FC022C019B19D1022BEBD05A1E53425341414A1370FFF7D6
:2038A000D9FB404B404A1968116042221A60D3F8C0103E4A11601822C3F8C020E922C3F820
:2038C0001422D3E7022BD1D1EF22394B1A60364B1A68344B1A60354B1A68364B1A60304BA6
:2038E0001B78002BC2D0BFE7A1F10B030F2B54D8C8B2FFF7F7FBB9E72F4BCAB2C4F30724F2
:203900001A605C60B2E72D4BCAB2F7E731F0070343D12B4B11F0010F1A68C1F3800014BFB7
:2039200042F0010222F001021A601E4B11F0020F1A6814BF42F0200222F020021A60FFF7FB
:2039400077FE93E731F0010027D11E4B19708EE701F118031F2B20D80D231B4A52F8331086
:203960008C4205DC02EBC3031A79184B1A607DE7013BF3D27AE7164BCCB249341C6075E77B
:2039800001290AD8074B1A6811B122F00C02EDE742F00C02EAE7012069E7022067E700BFE0
:2039A000C825002024860840380800203C08002038880840E4860840C8850840D085084058
:2039C00000860840E1070020846B2100408608405886084008B5054B1B7813B9044802F023
:2039E000C5FF0022034B1A6008BD00BFC5250020D004002034880840064B07481A68042A43
:203A00001FBF06490A7842F040020A7000221A6002F0ACBF2C880840D0040020C625002015
:203A200008B5094B40220021184611F0A9FB0121064A116050604FF48042054B5A604FF40A
:203A400000425A6008BD00BF0000002004F00F4000E100E003289EBF014B000119507047CD
:203A60000000002003289EBF024B03EB00104160704700BF0000002003289EBF024B03EB59
:203A800000108160704700BF00000020032806D80123034A03FA00F011680843106070474D
:203AA00028F00F40032806D80123034A03FA00F0116808431060704720F00F40032806D8E5
:203AC0000123034A03FA00F0116808431060704714F00F4003289FBF044B03EB001080688C
:203AE00000F0070088BF0020704700BF000000204FF0FF32014B1A60704700BF04F50F40DE
:203B00000122014B1A6070474CF00F40084B19461A68D002FCD4074B1A6822F480321A608E
:203B20000A68D203FCD41A6842F400321A60704704200D4000200D4010B50A4C2368980730
:203B40000ED0094B1A4619684901FCD413685B01FCD5FEF7B3FCFFF7D9FF236800232360ED
:203B600010BD00BF58200D4004200D4038B5264B1C6814F03F0414D1244D55F8043B23B1A4
:203B8000984770B10134052CF7D1214D2B7843B1FEF7A4FC0446FEF7A7FC201A092800D937
:203BA0000CB930BF27E01B4B1A6822F400321A60194A11461068C002FCD41A6842F4803272
:203BC0001A600B68DB03FCD5FEF78EFC241A092C03D8BDE83840FFF799BF632C0F4C0BD943
:203BE0002B78022B08D1236002F076FE30B1FFF78DFF0023236038BD0123F4E7FEF76EFCD7
:203C00000028F4D02368CCE74886084040080020C925002000200D4004200D4058200D404B
:203C2000074A10B50023144652F8041B814202D011B944F8230010BD0133052BF4D1FAE7F3
:203C4000400800200022054B1A60054A136943F0040313610122034B1A70704758200D4020
:203C600000ED00E0C92500204FF48032084B10B5C3F89021C3F89020BFF34F8FBFF36F8F45
:203C8000044C206818B102F071FE0023236010BD00E100E054080020134B1B783BB101F59F
:203CA0002011124B27310138994217D17047104A1278122AF3D10F4A12784B2AEFD1084423
:203CC0008B4200DB704703F52012032BD4BF2C3224321278013300F8012DF1E711F80129F7
:203CE00000F8012FE0E700BF2B002800270028002A00280029002800024A136843F01003C4
:203D0000136070472000024014235843034B044A0344B3FBF0F3013B13607047FF23F40055
:203D20000C0002402DE9F0471646274A1F461368264C43F00103DDF820A013602368804639
:203D400043F00103236032208946FEF7A9FB23681F4823F00103236001244FEA0832135860
:203D600004FA09F123EA0103135033031D58BC4025EA04051D50174D5059014351515A5905
:203D8000494614435C5140460022FEF7BFFD394630460022FEF7BAFD0F4B49EAC8021A60A3
:203DA00047EAC6025A60494640460B22FEF7B8FD304639460C22FEF7B3FDFFF79DFF504674
:203DC000BDE8F047FFF7A0BF38200D4044200D4000940D4020940D402C410D40FF22482433
:203DE00008B5084B08481A60084AE3690849121A98470848084A0021A369121A984702F023
:203E000085F9FEE7B4200D4040000020090800207CBD210010080020C03A00200549064B42
:203E200000204B600123054A0860C1E9022300F08DBD00BF58080020643A002008002C00A2
:203E4000044A136803431360034B186808B102F08DBD70477808002074080020014B186066
:203E6000704700BF740800200022024B18681A60704700BF780800200C4B02465889C0076A
:203E800012D40B48C088814228BF0146884294BF48204A2058810020C3E90002032219815B
:203EA0000249DA6000F09EBD704700BF58080020643A00200122024B00201A7011F098BD0E
:203EC000CA2500200749488910F0010008D14FF490020523C1E90223C1E9000000F082BD33
:203EE000704700BF5808002038B54F4D2C78802C1CD009D8012C00F08180022C00F08480E6
:203F0000002C62D000243AE0812C58D0822CF9D16B78002BF6D1A888420653D0C0B200F0E6
:203F200019FF424B0221188018462DE06A780A2AE8D801A151F822F0AB3F2000053F200075
:203F4000053F2000053F2000053F2000053F2000653F2000053F2000A53F2000053F200041
:203F6000B13F200069880A0A022A144609D0032A0DD0012AC6D112212D48FFF77DFF204681
:203F800038BD2C4B18684188FFF776FF06E0A888C9B201F013F818B9FFF78CFF0124EEE728
:203FA0000178F1E701212448EEE702212348EBE7214B1B78002BEFD001212148E4E76B78CB
:203FC000002B9FD102211F48DEE76B78052B0DD0092BD4D10120FFF733FF174BA8781A78D1
:203FE000824208D0187011F016FD04E0164A137843F001031370FFF765FFCFE76B780B2BD7
:2040000080D1FFF75FFFBAE7697801F0FD04012C7FF478AF6B88002BBED1CB1E59422879EE
:20402000594100F051FEECE7643A0020141E002060702100246C2100CB250020161E0020BE
:2040400009702100126F2100CC25002070B50388054693B340F2C312934201D1832903D1A4
:20406000002303202B802CE0822926D100F048FC044698B1020707D5FFF7D0FE00223D4B87
:2040800008201A70FFF7DCFEA30702D50220FFF7D7FE660702D50420FFF7D2FE002000F0F2
:2040A0003FFC50B1C40708D533494B8913F0010F03D1180606D5FFF7B1FE40F2C31301201E
:2040C0002B8070BD13F0200020D02C4B2C4E1C6814B9FFF7EFFE12E0636831781A784A404E
:2040E00059780A4201D02468F2E771789A784A40D9780A42F7D15B6898470028F3D0214B8A
:204100001A78002AD9D000221A70D4E7CB68032B09D14FF400220423C1E90223C1E9000093
:2041200000F014FCC9E7042BC5D0052B11D1164C2378DB07BFD5002000F020FE0028FAD165
:204140000F4B987800F014FE237823F001032370B1E7022BB1D10D4B1B683BB10A890C49B8
:204160000968891A0B4A10689847A6E7FFF7AAFEA3E700BFCB250020580800207C080020D7
:20418000643A0020CA250020CC250020700800206C0800206808002030B40C460B490546B0
:2041A0004B8913F001000FD1094BC1E900051A60084B0C811D60084B1C6008234B81022382
:2041C000CB6030BC00F0C2BB30BC70475808002070080020680800206C080020044A1368B3
:2041E00013B91060036070471A461B68F8E700BF7C08002010B5094C00F0CAFC00212046ED
:2042000002F09CFB204600F075FB2146002000F067FBBDE810400248FFF7E0BFE804002096
:20422000E0040020044B1A7810431870034B186808B102F09BBB7047CD250020800800207E
:2042400010B51A4B1A78212A03D0A12A21D0002008E098880028FAD15A78202A16D0222A5F
:2042600001D04AB110BD5A88114B02201A70FFF7D9FFFFF727FE07E0D9880E4A202928BF02
:2042800020210D48FFF788FF0120EBE7D9880B4AF4E798880028DAD15C78012CE9D0212C8D
:2042A000E0D107210648FFF7E7FDEDE7643A0020CE250020DB592100CF250020C5422000C8
:2042C000E2070020072908B50DD10268084B1A6082889A80827901209A71FFF7A3FFBDE84B
:2042E0000840FFF7EFBDBDE80840FFF7E3BD00BFE20700200148FFF771BF00BFF80400203F
:204300000022024B18781A70704700BFCD250020014B1878704700BFCE250020014B186063
:20432000704700BF80080020024B1868B0FA80F0400970473C900840044A136803431360E2
:20434000034B186808B102F011BB70478808002084080020114A00F07F03136043B979B19F
:204360000F4A13700F4A136843F0210313607047030609D50B4B1A6819B142F010021A60C5
:20438000704722F01002FAE7074B1A6811B142F02002F4E722F02002F1E700BF38900840C1
:2043A000EF250020449008405090084038B5144D082A144605EBC00501EB02031DD9591E98
:2043C0000120FFF747FB29460120FFF74BFB0D49013C012041EA0411FFF74EFB0120FFF76E
:2043E00055FB0120FFF76AFB0120FFF773FB0028FAD138BD11F8012B2A608B42FAD1F8E74E
:204400008090084002C001C02DE9F84F2B4E356815F0020542D12A4B1A789946022A3AD112
:20442000284B5C689846002C38D0638913F0400334D0AB46B8F8107023890020BB429A4633
:2044400028BFBA46A3EB0A03524661682381FFF7ADFF6268A7EB0A07524462602289FAB910
:204460006389990703D5EFB117464FF0010B23F0010213F0080F628118BF022524688FB1B3
:20448000002CD9D1C8F80440002389F80030336843F00A0333602846BDE8F88F0025FAE760
:2044A000002FC9D1C8F80440BBF1000FECD1002CEAD0336843F00203ECE700BF4490084050
:2044C000EF2500208C080020074B1A69C2F30030D20407D54FF48052C3F89020BFF34F8F78
:2044E000BFF36F8F704700BF00E100E018B14FF48052014B1A61704700E100E038B5142394
:204500000022044600F07F056B432148C118C2548B784A6043F004038B701E4B4C7033F883
:204520001530CA600B82FFF7CFFF1B4B1D6045B91A4A136843F001031360BDE83840FFF73E
:20454000D5BF012303FA05F5230613D5134A13681D4315600B8ADB0853628B7803F00303C5
:20456000022B0F4B1A680CBF42F0400222F040021A60E2E70B4A13681D4315600B8ADB083F
:2045800093628B7803F00303022B074BEAE700BF8C080020146F2100389008401C900840BF
:2045A0004890084024900840549008402DE9F84F044688469346002599463B4B03EBC10A22
:2045C000238967685B451E4628BF5E469B1B082EABEB060B238107D8BB199F421FD0DAF845
:2045E000001007F8011BF8E751460020FFF732FA791E00203144FFF735FA2C4B711E002061
:2046000043EA0111FFF738FA0020FFF73FFA0020FFF754FA0020FFF75DFA0028FAD1636855
:204620001E4466606389BBF1000F1BD1B9F1000F02D043F010036381238962890BB1500760
:2046400019D512F0080F18BF022522F001036381246814231649284603FB0818C8F80440A9
:20466000BDE8F88F23F0110113F0080F618118BF02252468A4E7B9F1000FEAD091075CBFB2
:2046800042F080026281638958BF45F0040523F0010258BFEDB21B0748BF45F0020562812E
:2046A00048BFEDB2D4E700BF8090084002C0010C8C08002000232DE9F041554A554D1360E1
:2046C00029684F07CAB242BF53492B600B70D60604D5802300212B604F4B1970D40708D4F6
:2046E000FFF792FE800741D5BDE8F0414B4811F076B9494E494B347858684CB3484A12685C
:20470000D2B258B3448914F0600163D014F0080F24F001010CBF0024022441F080014181EB
:204720004049013AD2B2FF2A52D102685A602B6843F048032B600023337010E012F0080F56
:2047400018BF022422F0010141F080014181006810B142899106F1D5586048B90124A207FC
:2047600002D52E4811F03BF9E307B9D5BDE8F0810289072AF2D942682A4F02F108019142B0
:2047800021D10289083A0281428922F0010112F0080F42684181917918BF022409B9D2795F
:2047A0005AB12A6842F040022A60426892F90020002AB4BF022201223270426808324260FD
:2047C00002685A60CBE7D7F800C002F801CBD6E70F68A6E70446678907F4B07727B9278901
:2047E00024683944002CF6D19142B7D31F8A0021BA422CBF002301231FFA82F8FFF7D6FE0B
:20480000B845044697D32B6843F040032B60A6E73890084044900840EF2500208C080020B2
:204820005890084080900840F8B5284B284C1860236801465E06DAB242BF236823F0400340
:204840002360550742BF236823F004032360D00713D514224A431F4DAB1858682F4660B159
:20486000438913F4807309D00123AB5423689A0603D4236843F020032360F8BD164A174D97
:2048800012682D6842EA0522054692B26E8906F4B07626B92E892D683344002DF6D19A429E
:2048A000EBD8142505FB01752B8A934294BF00230123FFF77BFE236823F001032360830744
:2048C000DBD52846BDE8F84011F089B838900840509008408C080020589008405C9008404B
:2048E0001422034B00F07F0002FB0030816070478C080020014B1860704700BF8408002066
:2049000007B5FFF7E1FD054B1A68019200221A60FFF7ECFD019803B05DF804FB88080020D7
:2049200007B500F07F01FFF7CFFD1422064B02FB0133DA6801920022DA60FFF7D7FD01983D
:2049400003B05DF804FB00BF8C080020F8B5142500F07F046543204E701983785F0739D576
:204960004B683BB934B94B89190733D5BDE8F84011F035B8FFF7A8FD1423074603FB046358
:2049800004355B683544DBB929604B8943F001034B8109680029F8D11420104B1C6000FB45
:2049A0000464607810F07F000DD10C331B68DA0701D5FFF77FFE3846BDE8F840FFF796BDCA
:2049C0001D461B68DFE7064B1B68DB07F3D5FFF72BFFF0E7F8BD00BF8C080020389008407E
:2049E000509008402DE9F74F142500F07F0465434E4E06EB050898F802305F0740F19380D9
:204A0000FFF762FD074694B94868494A494B58B91060482240461A6010F0E1FF384603B0D4
:204A2000BDE8F04FFFF762BD146040221A60142303FB046304355B683544002B64D1296033
:204A4000002964D14FF0140B0BFB04646378384A03F07F03136094F8019019F07F095CD00D
:204A60000BFB09F3F55CF418002D5AD16368002B3FD05B8958063CD5B4F810A02D4B60688B
:204A8000002832D0018951450A4628BF5246891AAAEB020A01811968C907FCD461684846BF
:204AA00049680192FFF782FC6068019A4168214B0A44426061680889A0B94A8912F0020F3D
:204AC00003D0BAF1000F10D0824622F001024A816268518911F0080F18BF022511680BFB88
:204AE00009625160BAF1000FC9D11A6842F001021A603846FFF7FAFCAB0714D5404603B0D7
:204B0000BDE8F04F10F06BBF1D461B6895E74B8943F041034B81096892E7FFF775FC054672
:204B2000E7E70D46E5E703B0BDE8F08F8C08002038900840449008401421044A00F07F03DC
:204B400001FB032301229A70FFF7D8BC8C080020F8B5002427460D4DAB78E0B25B0709D43C
:204B60000134042C05F11405F6D1BDE8F8400020FFF7E2BF6E68AF7010F026FF002EEFD05F
:204B8000738923F0010373813668F7E78C08002010B51248FFF744F80322114B1A601A6810
:204BA0001206FCD500240F4B9C709C609C75DC6183F82A401C6383F83E405C64FFF7C8FF5E
:204BC000094B20461C609C60FEF76CFF0120FEF769FF4FF48052054B1A6110BD294320008C
:204BE0003C9008408C0800201C90084000E100E01421044A00F07F0301FB032300229A70F5
:204C0000FFF77CBC8C08002014231C4A10B500F07F0403FB04239A78014622F004029A703D
:204C2000FFF752FC164B1C605CB9164A136823F001031360C022144B1A60BDE81040FFF733
:204C400055BC012311F0800F03FA04F36FEA03034FF0000209D00D490A6051F8242C134076
:204C600041F8243C084B0822E6E709490A6051F8282C283913400B60064BF4E78C080020F9
:204C8000389008401C90084044900840409008404C9008405090084008B500F07F01FFF76D
:204CA00013FC1422074B02FB0133002259685A60FFF71CFC01B908BD4B8923F001034B814B
:204CC0000968F7E78C0800202DE9F04700F07F04042C054639D814266643DFF874A00AEBC2
:204CE0000607BB78D14613F0040F2ED0FFF7ECFB804651B1012128460AF80610FFF72AFBE1
:204D00004046BDE8F047FFF7F1BB28460AF80610FFF720FB7A6892B15389D9050FD523F022
:204D2000010353817B685B891B0702D5384610F056FE142303FB04935A6812685A60002C1B
:204D4000DED02046FFF770FDDAE7BDE8F08700BF8C08002000F07F0004289FBF14235843C1
:204D6000024B185C88BF0020704700BF8C080020014B1860704700BF0090084008B500F022
:204D80007F01FFF7A1FB074B19600C3331B9196801F00201FFF7AAFB084608BD196801F078
:204DA0000101F7E738900840F8B52A4B1D6814331B681D40284B15F0FF051E6803F1140328
:204DC0001B6806EA0306254BF6B21C6803F114031B6804EA0304E4B21CD0EB0701D5FFF7F8
:204DE00069FC01231E481F4A45FA03F1CF070ED503601168CFB2890642BF116821F02001D7
:204E00001160790742BF116821F0040111600133062BE9D156B1012546FA05F3DF07E8B29C
:204E200001D5FFF701FD0135062DF5D1610704D5FFF78EFE0820FFF77FFAA20702D504207B
:204E4000FFF77AFAE30704D5BDE8F8400220FFF773BAF8BD08900840109008401890084096
:204E600038900840449008400449054B03204B60044B8B6000230B60FFF768BDDC080020B4
:204E8000F125002040000C002DE9F341048805460E4644B1B4F58D7F01D1832937D10023C8
:204EA00003202B8030E008216846FEF7F5FE69463C4811F8013B013403F00F02092A4FEA38
:204EC00013138CBF37323032092B8CBF37333033082C8280438000F10400EAD1FFF78AF928
:204EE000FFF708FA3048FEF7B9FF2F48FFF716FA82202D49FFF7F4FC03202B49FFF7F0FCA1
:204F00004FF48D7301202B8002B0BDE8F0818229F6D1FEF7A9FFC707044607D5304610F041
:204F200051FD032010F04EFDFFF79EFF14F0080F18BF00231D4C18BF2370FFF7E1F98007E3
:204F400017D5FFF7E5F910F0010010D0012323700320FFF7E5FCC107D2D5154B5C89E20762
:204F6000CED414F0800408D0FFF77EFFC8E72070C6E72378002BC3D0EAE70E4A11689046FF
:204F80000029F1D01E7A0C4FC6F14006F6B2E3B29E42E9D9D8F8003017F8010B9847013429
:204FA000F5E700BFBC07002000050020F0250020DC080020EC080020F125002003299ABF46
:204FC000024B53F821000020704700BF146C2100014B1860704700BFEC0800200021014829
:204FE00001F0ACBC0005002010B5BAB004460A46684628210CF050FA6B46C021034A0AA89C
:2050000011F044FA0AA8A0473AB010BD727021002DE9F04105460E46B0B0E1B96846104917
:2050200010F060FA6846A84730B0BDE8F081E30705D44146684610F055FA6846A847335D0F
:205040003A46C021684611F021FA01346846A847082CECD1E8E70024024FDFF80C80EEE7E6
:205060007570210084702100037B210070B5038805460C46B0B033B1702B22D00023032012
:205080002B8030B070BD13781646202B02F10102F9D043B32021304610F0E2F81A4A034633
:2050A000106018B1002103F8011B1360304600F0DBFF164B186080B10022154B1A80702313
:2050C0002B80124B104A1B6821465B68126810489847012807D80020D3E768460D4910F02A
:2050E00001FA6846A0470C49684610F0FBF96846A04720460949FFF78BFF6846084910F05D
:20510000F1F96846A047B9E7F0080020F4080020181E002089702100C0702100A03A002081
:205120007883210030B5038804460D46B1B04BB90749684610F0D6F96846A847054B0648D9
:205140009B6A984700230320238031B030BD00BFC2702100B46D2100E470210030B503887B
:2051600004460D46B1B04BB90749684610F0BAF96846A847054B0648DB6A984700230320D7
:20518000238031B030BD00BFEA702100B46D2100E47021002DE9F041038806460F46B0B0DA
:2051A00063B91449684610F09DF96846B847124810F0E9FC0446DFF844802CB90023032036
:2051C000338030B0BDE8F08165680C3555F80C3C0C3523B9204610F007FD0446EDE7424656
:2051E000C021684655F8103C11F050F96846B847ECE700BF0B7121001C0900204C76210039
:2052000030B5038805460C46B1B07BB90A49684610F068F96846A04720460849FFF7F8FE52
:205220006846074910F05EF96846A047002303202B8031B030BD00BF20712100A03A00205A
:20524000479C210070B5038805460C46B0B0002B71D13C49684610F045F96846A0473A4BA5
:20526000C0211B68394A3A4E684611F00FF96846A0473368C021374A684611F007F9684619
:20528000A0473368002B56D003F0D6FC064602F06DFFC0210346304A684611F0F7F86846DC
:2052A000A0472E4BC0211B682D4A684611F0EEF86846A0472B4BC0211B782B4A684611F07B
:2052C000E5F86846A0476846284910F00BF96846A047002E34D0304603F0C4FC014620469C
:2052E000FFF796FE2249684610F0FCF86846A047FDF7C2F81F4BC0211B681F4AC31ADB09DC
:20530000684611F0C3F86846A04707F0C1F81B4A0346C021684611F0B9F86846A04706F064
:20532000CFFBC00940EA4163154AC021684611F0ADF86846A047002303202B8030B070BDE5
:205340001049D0E733712100A812002041712100A4120020587121006E712100980600204D
:205360007F7121007C2E002096712100AC712100479C2100D82E0020BD712100E4712100FD
:205380000A722100087721002DE9F047048807460E46B4B08CB906F03DFB20B102203C80D0
:2053A00034B0BDE8F08705F0DFFB054648B9244904A810F097F804A8B047002303203B8086
:2053C000EEE7204904A810F08DF804A8B047DFF87890DFF87880286910F0D5FBEA88AB8807
:2053E000C021009204464A4604A811F04FF804A8B047DFF85CA034B9284611F012F9054644
:205400000028E8D1D9E7628A237D0292228AC0210192627D04A80092424611F037F804A82A
:20542000B047A11D3046FFF7F3FD514604A810F059F804A8B047204610F0D6FB0446DAE7E2
:205440002A722100477221005772210081722100479C21002DE9F041B0F8008006460F46A3
:205460001546B2B0B8F1000F65D14AB313784BB3202110460FF0F4FE044608B104F8018BE8
:20548000284630490FF050FFF8B901222E4B1A609CB123788BB1202120460FF0E1FE08B1AE
:2054A00000230370204627490FF03EFF18B3204626490FF039FF002841D10022244B1CE0A6
:2054C0001446DDE714461D46DAE728461F490FF02BFF10B91C4B1860DAE72B461D4AC0210F
:2054E00002A810F0D3FF02A8B84700230220338032B0BDE8F0810122154B154D1A602868A8
:205500001549164A104C002808BF0A46236814490092144A02A8002B14BF0B461346C02127
:20552000114A10F0B3FF02A8B847286804F010FA206804F0F5F9002303203380D8E723469C
:205540000A4ACCE7E27221000C0900207F73210010090020E4722100D6722100858A21003E
:20556000CA722100C67221001D732100007321002DE9F041038806460D46CEB043B91A4BE0
:205580001B7B5BB919491EA80FF0ACFF1EA8A8470023032033804EB0BDE8F0810CF036F8A3
:2055A0000028EFD0124FDFF85080386801F0C4FE104904461EA80FF095FF1EA8A847002CCC
:2055C000E6D02246782168460CF0AAF86B464246C0211EA810F05AFF1EA8A84721463868D3
:2055E00001F086FE0446EAE70439002036732100440700204B7321004C7621002DE9F0437E
:20560000048807460D46B1B034BB164968460FF069FF6846A847144EDFF85080DFF850903D
:20562000337EA3B196F82A30012B10D8414668460FF058FF6846A847284606F11A01FFF7CB
:20564000D3FC494668460FF04DFF6846A8470134032C06F12006E3D1002303203B8031B03F
:20566000BDE8F0835B7321005031002071732100479C210070B5038806460C46B4B073B99B
:205680007449754D04A80FF02DFF04A8A0472B7B53B9724904A80FF025FF04A8A04700232F
:2056A0000320338034B070BD6B7BC0216C4A04A810F0ECFE04A8A0476A4B1B69984700281D
:2056C00000F0BF80684904A80FF00CFF04A8A047664904A80FF006FF04A8A047204664499C
:2056E000FFF782FC95F85430624AC02104A810F0CDFE04A8A047604904A80FF0F3FE04A89D
:20570000A04720465D49FFF76FFC5D4AC02195F8403004A810F0BAFE04A8A047AB7BC021B2
:20572000032B96BF574A584B52F8233004A8574A10F0ACFE04A8A047AB681A8C002A00F0A8
:205740008280514B5249012A08BF0B46C021514A04A810F09BFE04A8A0474F4AC021EB8A8A
:2057600004A810F093FE04A8A0472B7EC021FF2B16BF6A8B4FF0FF33534304A8474A10F097
:2057800085FE04A8A04795F85E30C021032B96BF434A3D4B52F8233004A8424A10F076FE16
:2057A00004A8A047404904A80FF09CFE04A8A047686C002849D011F0F1F801462046FFF753
:2057C00013FC6B6CC0219B79384A04A810F05EFE04A8A047B5F84A30C021354A04A810F09E
:2057E00055FE04A8A047AB8AC021324A009304A8B5F8483010F04AFE04A8A047EB7BC021AB
:205800002D4A04A810F042FE04A8A04795F85B30C0212A4A009304A895F85A3010F036FE9B
:2058200004A8A047AB7C6A7C02932B7CC0211344CDE9002304A895F85730214A10F026FE2C
:205840002BE720493FE7204B80E7204904A80FF049FEBDE781732100043900208E73210042
:20586000A1732100B46D2100B2732100CC73210020390020D5732100E37321003039002029
:20588000988521004C6C210075732100EF732100A1B72100FB73210006742100217421000C
:2058A0003C6C210043742100517421006774210079742100867421009F742100B0742100C3
:2058C000DE742100BF7321007D7321002576210030B5038804460D46B1B043B906496846CE
:2058E0000FF000FE6846A84704480CF031FB00230320238031B030BD1B752100E4702100BD
:205900002DE9F041B0F8008007460E461546B0B0B8F1000F70D15AB313785BB32021104686
:205920000FF09EFC044608B104F8018B28463E490FF0FAFC08BB01223C4B1A609CB3237888
:205940008BB3202120460FF08BFC08B1002303702046374910F0B9FF054678BB2346C02127
:20596000344A684610F092FD6846B0473D8016E01446DBE714461D46D8E728462E490FF098
:20598000D3FC10B9294B1860D8E72B46C0212B4A684610F07BFD6846B04700233B80022032
:2059A00030B0BDE8F08107F0CFFC214B00F1100250F8041B904243F8041BF9D11B4A204C92
:2059C000126823691AB398470546C8B91D4968460FF088FD6846B04730461549FFF704FB43
:2059E000194968460FF07EFD6846B047A36829460F489847E3689847002303203B80CFE7E7
:205A0000124968460FF06EFD6846B047F4E7984740B10F4968460FF065FD6846B047E3696B
:205A20009847E9E70B49ECE7E2722100080900201C1E00204C7521007F73210036752100CF
:205A4000B46D2100607521008175210086752100A2752100C9752100F0B5038806460C4676
:205A6000CBB0002B32D12C491AA80FF03BFD1AA8A04708F085FA08F0EBF9054600282FD0A1
:205A800026491AA80FF02EFD1AA8A0472046291DFFF7AAFAAB69F3B1C021214A1AA810F0F6
:205AA000F5FC1AA8A04707F06FFA00282CDD07F06BFAC02103461B4A1AA810F0E7FC1AA869
:205AC000A04707F065FB0546174F5DB90023032033804BB0F0BD15491AA80FF003FDE0E73A
:205AE0001349F9E72A46642101A807F0E5FB3A46C02101AB1AA810F0C9FC1AA8A04728464A
:205B000010F031FE0546E0E70A491AA80FF0EAFC1AA8A047DAE700BFE175210071732100A5
:205B2000F17521002B762100497621000B7621002276210050762100F0B5078805460C4629
:205B40001646B3B02FB19B2F4AD0002303202B8021E0BAB11378ABB1202110460FF080FB6D
:205B600000B107703046394910F0AFFE0746A0B93346C021364A02A810F088FC02A8A04719
:205B80002F8007E0334902A80FF0ACFC02A8A04700232B80022033B0F0BD2F4902A80FF070
:205BA000A1FC02A8A04720462849FFF71DFA2B4902A80FF097FC02A8A047294B4FF420714A
:205BC0001A68284B28481A60284B1C600FF031FF0423002280211D4807F020F99B232B8000
:205BE000224E33687BB120480FF03EFF0028D2D0336843B11E4902A80FF074FC02A8A04760
:205C000000233360A1E71B4902A80FF06BFC02A8A04720460D49FFF7E7F9174B1E88174B45
:205C20001F78FCF729FC104BC0211A683346821A4FF47A705043C009CDE90070104A02A82F
:205C400010F024FC02A8A0477FE700BF2C1E00208D76210062762100A7762100479C2100A5
:205C6000D00A0020FC08002020090020F8080020B0762100B97621001A1E00203126002037
:205C8000D37621002DE9F043038806460D46B3B0002B50D108F0BEFA044650B9284902A85A
:205CA0000FF020FC02A8A8470220348033B0BDE8F083244902A80FF015FC02A8A847224F2E
:205CC000DFF89480DFF89490394602A80FF00AFC02A8A847204610F0A6FD01462846FFF763
:205CE00083F9414602A80FF0FDFB02A8A847204608F08AFA01462846FFF78AF9627C237CDA
:205D0000042A8CBF4A46114902A898BF51F82220C02100920E4A10F0B9FB02A8A8470D4926
:205D200002A80FF0DFFB02A8A847204608F078FA04460028C8D1002303203380B6E700BF17
:205D4000F37621000E77210071732100286C21002A772100479C21002477210075732100CE
:205D60002DE9F041B2B004460F4902A80FF0BAFB02A8A0470D4DDFF8388055F80C6B16B96D
:205D800032B0BDE8F08155F8083C1F68384600F0C1FC3346CDE900704246C02102A810F016
:205DA00075FB02A8A047E8E741772100480500204E7721002DE9F043B0F8008007460E46D5
:205DC0001446B3B0B8F1000F7AD152B3137853B3202110460FF044FA054608B105F8018B0C
:205DE000204600F07BFC3A4B8046994618603CB1214638480FF098FAC0B1B8F1FF3F15D191
:205E00002346C021344A02A810F040FB02A8B0473046FFF7A5FF002302203B8033B0BDE89C
:205E2000F0831546DCE715461C46D9E7DFF8BC8085B12B7873B1202128460FF011FA08B1D2
:205E4000002303700A22284601A90FF07FFCC8F8000004E04FF0FF330025C8F80030D8F8F4
:205E6000001059B9019BAB420AD12B46C0211B4A02A810F00BFB02A8B047CCE70429F4D8E8
:205E8000D9F80030994218D0204600F007FC204613490FF049FA20B120460E490FF044FA16
:205EA00058B9D8F80030032B0EDD06F00BFD0D4902A80FF017FB02A8B0473046FFF750FF4D
:205EC000002303203B80A9E706F00CFD0649EFE71809002061772100E472210000732100C8
:205EE00065772100697721007F7721001409002030B5038804460D46B1B03BB906496846F1
:205F00000FF0F0FA6846A847FCF77EFC00230320238031B030BD00BF95772100064A106823
:205F200048B100201060054A1170054A1380054B186800F01BBD7047F80800203126002040
:205F40001A1E0020FC080020F0B5078805460E461446B1B047BB4AB9154968460FF0C2FA6B
:205F60006846B0472C80022031B0F0BD1378A3B1202110460FF074F900B1077020460EF0B2
:205F8000EBFF031E0BDAC02168460A4A10F07EFA6846B04700232B80E5E71C46EEE7684692
:205FA00005490FF09FFAF3E7002303800320DBE7A0772100D3772100EF772100F0B5078838
:205FC00004460E461546B1B067BB10466AB906F0B7FCC0210346154A684610F057FA6846ED
:205FE000B0472580022031B0F0BD0EF0B5FF0728054609D90346C0210D4A684610F046FAD8
:206000006846B0472780EDE781B2384606F0ACFC06F0B4FC2B46C0216846064A10F036FAEB
:206020006846B047002303202380DCE707782100227821003A78210010B5074C20460FF064
:206040009FFD204605490FF0BBFDBDE810400449044806F06BBF00BF1C0900201005002052
:206060001D5F20000009002070B506460A480FF08AFD044610B90546284670BD65682868BC
:2060800018B920460FF0B0FDF3E731460FF04CF90028F1D00C35F2E71C09002010B50388F0
:2060A0000446442B08D0452B11D0C3B90FF0B4FC44232380012015E00B4B1B788B42F9D133
:2060C000002AF7D00021094B19804523038008490648FEF7CBFF0128EAD8002002E0002368
:2060E0000380032010BD00BFBE3A00203C1E0020F56020000146014802F030BD72702100F5
:206100000021014800F01ABC1805002038B5644C0FF058FBFCF78AF90FF0C7FC00F082FB7E
:206120000021604800F00AFC00F024F9FCF758FB0FF07EFC00F058FCFCF7A8F800F0BAFF54
:2061400001F01CFB00F044FC2368022B6BDD564A5649574802F002FD564810F0A4F9236872
:20616000022B60DD504A5149514802F0F7FC524B5248196802F0F2FC2368022B53DD4A4AEF
:206180004A494B4802F0EAFC4D4B4E48196802F0E5FC2368022B46DD434A4449444802F00C
:2061A000DDFC494B4948196802F0D8FC2368022B39DD3D4A3D493E4802F0D0FC4AF6CD313D
:2061C000434802F0CBFC2368022B2CDD364A3749374802F0C3FC04213E4802F0BFFC2368A7
:2061E000022B20DD304A3149314802F0B7FC3A4B3A48198802F0B2FC2368022B13DD2A4AFF
:206200002A492B4802F0AAFC354802F0A7FC2368022B08DD334800F007FA2368022B02DD4E
:206220000A2010F04DF92F492F4A0B682F4813604B680021536000F081FB4FF0FF3007F048
:2062400025F923680546022B15DD174A1749184802F084FC264802F081FC2368022B0ADD1C
:2062600005B10235284600F0CFF92368022B02DD0A2010F025F9FCF741F8FFF741FF1D4865
:206280000FF0CCFBFCF7B2FA00F0E4FA0446FCF7B3FA14F0FF0FF7D10FF09EFAF4E700BFD6
:2062A000F405002038050020537E2100AD6F2100B26F2100587E2100B46D21008D7E210092
:2062C000946D21009C7E21006C6D2100A77E2100B27E2100CC7E21003E1E0020017F210048
:2062E0000E7F2100A03A0020E83200200C070020237F2100086E2100F8B503880546164650
:20630000CBB14A2B2BD188291FD117480FF03BFC0446C4B1231D9E421FD1214612480FF0CB
:206320003CFC124E626937683260A2690AB1E0699047376007E00C480FF025FC044634B9BA
:2063400001220B4B1A704A232B8001200AE0A168201D0FF06EFB2468F1E72468D9E7002396
:2063600003800320F8BD00BF30090020D00A00203226002010B50024054B06481C700FF026
:20638000FFFB2146BDE81040034800F0D7BA00BF32260020300900202805002070B504468F
:2063A000E3610B4B049D1B78C4E905526BB1094D094B2E68201D2B600FF03BFB2E602146BD
:2063C000BDE8704005480FF0FBBBA160F7E700BF32260020D00A00202805002030090020B0
:2063E00013B5034C24680094FFF7D8FF02B010BDD00A002070B5094B04461B783BB1084D89
:20640000084B2E6804302B600FF01CFB2E602146BDE8704004480FF0D3BB00BF3226002064
:20642000D00A0020280500203009002010B5084B04461B7843B1043000F0CCF82146BDE8DF
:20644000104004480FF0A9BBC0E90333F6E700BF322600203009002010B50A4B04461B78FA
:2064600023B1BDE8104004300FF0FEBA06480FF08AFB08B9012010BDA04201D00068F8E7ED
:206480000020F8E7322600203009002010B50D4C236813B90C4A136010BDFBF7EDFF2268B9
:2064A000D2E900310B441B1A92681AB91844064B1860F1E7D2E900142144091A8B4228BF97
:2064C0000B46F1E73809002034090020014800F04DBA00BF380500202DE9F8430388054652
:2064E00053B1592B48D1872921D1002024490B6863B918B10B6001E0214A136059230120AD
:206500002B80BDE8F88301203346F1E7D3E902649442F8D000B10B6019460B468968002998
:20652000ECD0C8689042F8D189689960F4E78229E4D1134F4FF00009B84600263C68002C11
:20654000DCD020460FF0C0FA98B122468821E06800F0CCF958B9A368E0602EB1B360C4F80F
:206560000890FFF793FFE8E7C8F80030F7E7FFF7ADFF2646A468E2E7002303800320C0E70B
:206580003809002010B50446FFF7A0FFE3680B4A0BB1136833B90A4B1B68E3601368146029
:2065A000A36004E0A34206D1054A1268DA60BDE81040FFF76BBF9B68ECE700BF380900202A
:2065C000D00A0020024B1868003818BF012070473809002010B50B4A04461368834208D12F
:2065E00083681360FFF752FF0023C4E9023310BD1346002BF8D09A68A242F9D1A2689A6024
:20660000F0E700BF3809002000B58BB00246282168460AF041FF6946024802F09FFA0BB0DB
:206620005DF804FB7270210070B5054688B90A48BDE8704002F092BAE30702D42E200FF060
:206640003FFF295D3046013402F088FA082CF3D170BD0024014EF4E77570210084702100C9
:2066600010B5044620B9BDE81040094802F076BA08490FF0B0FB0028F5D1E3880648190A05
:2066800041EA032189B2BDE8104002F067BA00BF627F2100746F21006A7F21000429F8B5BF
:2066A00005460E4607D801460A480EF03DFE0746094C216801B9F8BD1FB128460EF034FE82
:2066C00028B9D4E90132B242D4BF1A601E600C34EFE700BF61772100480500202DE9F041E8
:2066E000054638B100264FF00C08094C08FB06F7395911B94FF0FF3006E028460EF014FE6A
:2067000020B93C4463681868BDE8F0810136EDE74805002004289ABF024B53F820000248C0
:20672000704700BF4C6D2100727F210038B5836804460D469BB10A4804600220A07304F156
:206740000C0098470238012801D9832D05D121462046BDE8384000F005B80123A37338BDC5
:20676000D00A00202DE9F8431C4F04463D6888462B46A34204D00BB9BDE8F8831B68F8E736
:20678000002CF9D0164EA37BD6F8009063B10023A3738DB9A3683BB1444505D02A46832128
:2067A000346004F10C0098473B68A3420ED123683B60C6F80090DFE7A54204D022468721F9
:2067C00028460FF06CF92D68E3E71346002BF0D01A68A242F9D122681A60EAE7D40A002041
:2067E000D00A0020002238B50125084B1A70084B1C6804B938BDE37B2BB10022822120469F
:20680000E581FFF793FF2468F3E700BF36260020D40A0020024B1878421C1A70704700BFB0
:20682000342600208A22064B1A700023054A1370054A1370054A1360054A1360704700BF96
:20684000342600203326002035260020D40A0020D00A00202DE9F0411A4D2B780BB1FFF7CF
:20686000C1FF194C267896B10C221849184F0B78013E5A430133B81803F01F03BF5C0B700A
:206880002670D0E9018090B9124B1E6826B92B7820781844BDE8F0812B780BB1FFF7A2FF7A
:2068A0003046424639460FF0FAF83668EEE7812F08BF01234246394608BF83730FF0EFF8B2
:2068C000E5E700BF36260020352600203326002050090020D40A0020024A034B10781B7891
:2068E000184470473526002036260020F0B50B4E3378202B0FD00C25094C0A4F24781C44E0
:2069000004F01F046C433D19C5E901200020013339553370F0BD0120FCE700BF352600201C
:20692000332600205009002038B5034C25680FF0B6F8256038BD00BFD00A002010B40A4CA2
:206940000A4621680B4683420CD04BB950B1016001212060817310BC81218381FFF7E4BF65
:206960001B68F0E710BC7047D40A002038B1837B013B012B9FBF0123014AC37313707047B0
:20698000362600200246084610B5064953600C68029B106093600A600CB9FBF7B7FD0020B5
:2069A00010BD00BFD80A002010B5084C206858B100232360D0E901319847236823B1BDE82B
:2069C00010401868FBF7A2BD10BD00BFD80A0020034A9179D379034A03EB012313807047BC
:2069E000A03A00203E1E0020CD2182B0054B01AA934204D30021044802B0FFF79FBF03F8EC
:206A0000011BF5E7C03A00200006002038B5FBF7F3FE0C4C0C4D2378CD2B0CD0AC4207D386
:206A2000FBF7EAFEAC422CBF4FF0FF30281B38BD0134F0E701342378CD2BF1D1AC42F9D3AD
:206A4000EEE700BFC03A0020C042002070B5038806460BB3912B37D11D480FF005F810B3C4
:206A6000FFF7D4FF1B4D1C4B041EA5EB030501DB002D1ADA194B1B68002B09DD184A19490B
:206A8000194802F06BF82A462146184802F066F80F480EF0D7FF04E04FF4A0610C480EF014
:206AA000C8FF91233380012011E0AC42F0DD0B4B1B68002BECDD0A4A0A490B4802F04EF8DC
:206AC0002A4621460A48E1E700230380032070BDDC0A0020C0420020C03A0020F405002074
:206AE000D67F2100DC7F2100B26F2100E07F21000A8021002DE9F04104880546752C20D088
:206B00007C2C3DD0002C4ED1FFF784FE284E294B294FDFF8B08018703460336857F823204B
:206B20002AB9264A137075232B8001203EE008F803409368002180209847336801333360BD
:206B4000EBE700231E4A1360194A1360184B1B4A1B6812789A4204DC194B1B68002BF0D12B
:206B6000E1E7184AD256002A19DA134A002052F82320104B1978FFF7B9FE28B97C23D3E7C9
:206B80000C4B1B788B42D0D1094B0E491A688B5C03F07F038B540A4A136801331360044A71
:206BA00013680133D1E7002303800320BDE8F081F00A0020BA3A0020C804002037260020F8
:206BC000EC0A0020B83A0020064A136843F004031360054B186804331B6840EA032080B20C
:206BE000704700BF00700D4014700D4010B5174A136823F00C0313600122154B1A601A68DC
:206C0000012AFCD10822134B13491A60E32203F505731A601A460B68DB07FCD50F4C10211D
:206C200000232068013900F0010043EA00034FEA43039BB2F5D1002BF1D00949180A03F069
:206C4000FE0308600B60EF23136010BD00700D40A8200D4024860840648608409C860840AE
:206C600014700D4010B5044690F84C308021013380F84C30064A03462030FFF7B1FB054B8C
:206C80002246BDE8104000201978FFF72FBE00BF656C2000BC3A0020F8B503880446ABB15F
:206CA000B3F5867F29D1822913D10EF049FEBFF35F8F0022134B1E681A60BFF35F8F0EF09B
:206CC00043FE114D114F55F8040B20B94FF486732380012014E090F8453026FA03F3DB0797
:206CE000F1D5FFF7B9FB0028EDD055F8043C3A4602211846FFF774FBE5E7002303800320B7
:206D0000F8BD00BF000B002070040020296D2000034A1368034303481360FFF727BE00BF24
:206D2000000B00202006002070B50446FFF794FB20B304F120063046FFF78EFB054620465A
:206D40000EF0D5FF012811D1C5B1002523460C4A7E21304684F84C50FFF742FB2246094BE0
:206D60002846BDE870401978FFF7C0BD30B92DB93046FFF75BFB2246034BF1E770BD00BF41
:206D8000656C2000BD3A0020BB3A00202DE9F843FFF740FD334B344E1870FFF73BFD334B1E
:206DA000334D1870FFF736FD324B334F18700023B360324BDFF8D080DFF8D090736055F8EA
:206DC000041B39B92E48FFF7B9FDBDE8F843264800F052B9012491F845308A6CD908090331
:206DE000C85903F0070304FA03F320EA0303CB5155F8043C93F84530D908090351F808008A
:206E000003F0070304FA03F320EA030341F8083055F8043C42F08C0193F84500FCF716F8E3
:206E200055F8043C93F84530DA08120352F8091003F0070304FA03F30B4342F8093055F86C
:206E4000043C93F84530DB080E4A04FA03F3136055F8043C93F845309C40B3681C43B46059
:206E6000ADE700BFBD3A0020F40A0020BB3A002070040020BC3A002020940D40116D20002C
:206E80002006002000E100E000940D4010940D4070B505880446672D09D0792D31D0002DDC
:206EA00035D1FFF7B7FC1C4B18701C4B1D601C4E1A4D0AE00A282B6810D00D280ED07E2B34
:206EC00003DC5A1C2A60174AD05430460EF0FFFE431CEFD16723238001201BE05A1C2A6075
:206EE0000025104A2846D5540B4B1978FFF7FEFC0D4B2A4685211868FFF7F8FC18B9792360
:206F0000E9E78529E8D10022044B1A60CFE700230380032070BD00BFBE3A0020040B00209D
:206F2000080B002038260020D00A002038B50E4C01462378254653B90C480EF0B5FE08B940
:206F4000012323700A48FFF711FD012038BD0A2801D00D28F6D105480EF0A6FE0028F1D037
:206F600000232B70EEE700BFB8260020080B00203006002008B50549054880220EF08DFEB5
:206F8000BDE8084000210348FFF7D8BCB9260020080B0020300600200021F0B50125FF2675
:206FA0000F46104C40FA01F3DB0711D5227894F801C0D3081B0303F1804302F0070203F5A0
:206FC000592305FA02F2BCF1000F07D043F822700131042904F10204E4D1F0BD43F8226069
:206FE000F6E700BFCC6F2100F0B500210126FF270E4C40FA01F3DB070ED522786578D308E7
:207000001B0303F1804302F0070203F5592306FA02F23DB143F822700131042904F1020423
:20702000E7D1F0BD43F82250F6E700BFCC6F2100F0B4002101260D4F0D4D0E4C17F81130FA
:207040000131DA081203505903F0070306FA03F320EA030050511059042943EA0003135193
:20706000ECD1F0BC0F20FFF7BFBF00BFCC6F210020940D4000940D40014601480EF0A0BD1C
:20708000100B002038B5054606480EF07CFD044604B938BDA068284002D0636803B198471C
:2070A0002468F5E7100B002001480EF069BD00BF100B002008B504480EF099FDBDE808403C
:2070C00002480EF094BD00BF4C0600204006002001480EF0D4BD00BF4006002038B50E4840
:2070E0000EF095FD054650B10C480EF090FD0446286030B9294608480EF09DFD25462846EA
:2071000038BD00F037FA04F1A601A4F8800004F1820000F0B9FAF2E7400600204C060020D6
:2071200010B50146044607480EF09BFD48B1216805480EF080FD2146BDE8104001480EF027
:207140007ABD10BD400600204C06002010B50146044609480EF085FD68B12468B4F880104B
:20716000204600F07BFA04F1A60104F18200BDE8104000F0A1BA10BD4006002010B50146B2
:20718000044603480EF06DFD00B1206810BD00BF4006002030B1054B9B68C01A044B8010DA
:2071A000584370474FF0FF30704700BF58060020ABAAAAAA38B50D4D002818BF05460C488D
:2071C0000EF0E1FC044610B94FF0FF3038BD2846211D0EF000FE20B12046BDE83840FFF76C
:2071E000D9BF20460EF000FDECE700BF746F2100540B0020024608B550B10EF0A5FD431C7C
:2072000006D0044B1268185C104100F0010008BD0020FCE7692700202DE9F84304460E46B2
:207220000027DFF8788058F8042BA2B1D2F80890B9F1000F0FD02046FFF7ACFF01461046E8
:207240000EF078FD014605461046FFF7D3FF012801D12846C8470137082FE4D12046FFF713
:2072600099FF0022094B1A542046FFF793FF084B21461A5407480EF090FC2EB12146BDE8B8
:20728000F84305480EF0D7BCBDE8F8836927002049270020540B002058060020340B002019
:2072A00050B10368072B06D8044A52F823301B1A5842584170470020704700BF340B002053
:2072C00010B50446FFF7ECFF10B1A160012010BD054A1368072BFAD8581C1060034A23608C
:2072E000A16042F82340F1E7180C0020340B0020F8B505460C460C270E4E214628460EF0C9
:2073000023FD431C16BFB368002007FB00300EF06BFCFFF73FFF014628460EF00BFD04460E
:2073200028B101462846FFF765FF0028E5D02046F8BD00BF5806002038B505460B480EF0A7
:2073400022FCFFF727FF014628460EF0F3FC044601462846FFF74EFF28B921462846BDE8B4
:207360003840FFF7C5BF204638BD00BF540B0020F8B50D4616460EF00FFD044620B10024DD
:20738000012006B13460F8BD2846FFF713FF0130F5D110480EF073FC0028F0DC0E480EF052
:2073A000F2FB05460D4F1DB9201E18BF0120E8E72846FFF7EFFE3B5C13B9291D2CB90C462D
:2073C00028460EF011FC0546EDE720460FF0D7FA0446F5E758060020540B0020492700202C
:2073E0002DE9F3410D46074620B90024204602B0BDE8F081234B01AA002908BF1D4629469D
:20740000FFF7B6FF0028F0D02846FFF7D3FE421C064627D11C4EDDF8048030460EF0F7FBD9
:20742000044698B9B8F1000FDFD04046FFF7C2FE431C1CBF0C24B3684FF0000118BF04FB73
:2074400000342046FFF7E8FE002CCED021460F480EF0B6FB2046FFF79DFE29460646201D90
:207460000EF0B4FC314638460EF064FC04467A6800210DF085FE01232246394604480EF0E9
:207480006EFCB3E7746F210058060020540B00206927002070B50A4604460D4600230146BB
:2074A00005480EF05CFC064600232A46214603480EF055FC304670BD692700204927002066
:2074C0000A460123014601480EF049BC492700200A460023014601480EF041BC4927002087
:2074E00008B50EF031FC431C07D00C22044B9B6802FB003000B1043008BD0020FCE700BF55
:207500005806002010B507490B88834208DB064C80B222880244181A08800120228010BDDF
:207520000020FCE7F0230020F2230020014B1880704700BFF0230020004870471C0C00200C
:20754000014B1888704700BFF0230020034A044B10781B781844C0B2704700BF79270020DB
:20756000F223002008B5FFF7F1FF014B184408BD1C0C0020F8B50C4B04461E780B4B1F889D
:20758000F519802D0DDC324609490DF01DFDFFF7E9FF344401463A4620460DF015FD284666
:2075A000F8BD0025FBE700BF79270020F02300201C0C002008B5FFF7C9FF024B1B8818444E
:2075C00080B208BDF023002010B50146FFF7F2FF4318802B12DC431E094A1BB21A44481C57
:2075E000002B05DA074B187801440120197010BD12F80149013B14541BB2F1E70020F6E749
:207600001C0C00207927002038B5094D094C2422002109480DF0B4FD294620460EF0D6FBC0
:20762000294604F10800BDE838400EF0CFBB00BF746F21006C3A00207C3A00200023044A69
:207640001380044A1380044A1370FFF7DDBF00BFF2230020F02300207927002038B50C462D
:207660000546FFF7EBFF802C28BF80242946224603480DF0A9FC034B20461C8038BD00BFE0
:207680001C0C0020F023002010B5094B03F1240253F8044B934240F8044BF9D1054B03F138
:2076A000100253F8040B934241F8040BF9D110BD7C3A00206C3A002010B5094B00F12402DE
:2076C00050F8044B904243F8044BF9D1054B01F1100251F8040B914243F8040BF9D110BD8D
:2076E0007C3A00206C3A0020024B23F810100120704700BF7C3A0020014B33F810007047BB
:207700007C3A002008B5044B123803EBC0000EF05DFB012008BD00BF6C3A0020024B123837
:2077200003EBC000704700BF6C3A0020014902480EF051BB746F2100743A002070B505467F
:207740000D480E460EF01FFA044600B970BD012D0AD1A3681BB920460EF046FAF4E730465C
:2077600098470028F7D0F1E7002DF4D16368002BF1D09847F5E700BF9C0C0020054B10B563
:207780001B689847044B5B689847BDE81040034B5B6818474C6B21006C6D2100946D21003D
:2077A00010B50948FEF726FE0848FFF7C5FD0146064C01B910BD0B7A20465B080B72FFF7B1
:2077C00097FD0146F5E700BF3C2E002064060020014601480EF0E0BA64060020F8B531F09F
:2077E000020307460E46154601D006292DD139461B480EF0D1FA044628BB36BB334608221E
:2078000039461748FFF7ECFD0446F0B147F6FF73C380FAF731FE237A20602B44102BA8BF80
:2078200010232046022E237208BF0C350EF0DBFAA18800284FEAC51514BF0A221922ADB212
:2078400021B9A58001E0062EE3D1F8BD5543C2F1640301FB03556423B5FBF3F5F1E700BFEF
:207860006406002038B505460420FFF745FF294604B213480EF090FA024650B9034608221C
:2078800029460F48FFF7ACFD0246C0B147F6FF73C38047F6FF71B2F906308B4208D00A207B
:2078A00044435A2000FB0343642093FBF0F31CB29388D4801BB910460EF0A7FA908038BD86
:2078C0006406002038B50848FFF736FD0446064D04B938BD21462846FFF7DCFD21462846F0
:2078E000FFF706FD0446F3E76406002010B500210548FFF7E5FCBDE8104000234FF4E1316A
:20790000024A0348FEF76CBD64060020A17720003C2E0020F8B5FAF7AFFD114D074600244D
:207920002E461220FFF7FAFE29460EF054FA78B10720FFF7E1FE06EB0414237B83420CD18A
:20794000A068381AB0F5206F8CBF00200120F8BD0134102C05F11005E3D10020F7E700BF6B
:20796000600D0020F8B5184D00242E461220FFF7D5FE29460EF02FFA013418B9102C05F107
:207980001005F3D1651E06EB0413A3F110077DB90720FFF7B1FE3073FAF76EFDB060122095
:2079A000FFF7BCFEBDE8F840014607480EF00EBA3C46013D203B224618685968083303C21A
:2079C000BB421446F7D1E0E7600D00202DE9F04F85B0174601902AB94FF0FF3A504605B016
:2079E000BDE8F08F4FF000084646019CDFF8F8B2DFF8BC9282F80380CDF8008041B9019B75
:207A0000A4EB030AB8F1000FE8D187F803A0E5E70129E1D9A24663781AF8025BDBF8002062
:207A2000023945EA0325032ACBB202934FEAD5330CDD4A469A499B48039301F08FF8039B49
:207A400042461946984801F089F8039BB8F1010F00F09C80B8F1020F00F0E880B8F1000FC0
:207A60003ED16BB1DBF80030002BB5DD8F49904A8C4801F073F829468E4801F06FF8ABE70A
:207A8000DBF8003005F07F06032BC5F3C71509DD4A468349834801F061F82A46314686489B
:207AA00001F05CF87E2D21D07F2D40D0029BB3425ED31E2D5CD1022E5AD1E278A3784FF0DF
:207AC000000843EA0223D90BB97019051AB245BF6FEA03536FEA1353C2F30B031BB23B8098
:207AE000029B0AEB0604991BC9B287E796B9019BAAEB0303FB70DBF80030032B07DD4A46B7
:207B00006749684801F02AF86C480EF0CCFC4FF00108E5E7DBF80030002B7FF75DAF634908
:207B2000634A604801F01AF831466548A5E796B9019BAAEB030A87F803A0DBF80030032B5D
:207B40007FF74CAF5A4A5649564801F007F85D480EF0A9FC42E7DBF80030002B7FF73CAFE3
:207B60005249534A4F4800F0F9FF3146564884E7DBF80030002B7FF72FAF4D4A4B49494890
:207B800000F0ECFF51480EF08EFC25E7DBF8002053B9002A7FF720AF4449454A414800F0DA
:207BA000DDFF29464A4868E7032AC5F30A04C5F3C32509DD4A463A493A4800F0CFFF2A465D
:207BC0002146444800F0CAFF012DDBF800300BD00F2D19D0002B7FF7FFAE354A3349314806
:207BE00000F0BCFF3C48CEE7032B009408DD2C494A462C4800F0B2FF0099384800F0AEFF2A
:207C00004FF0020800266BE7032B08DD2449284A244800F0A3FF2146314800F09FFF002C19
:207C20007FF4DAAE019BAAEB030AD7E6BDF80810DBF800200391002B40F0CA80032AEEB288
:207C4000C5F3062509DD4A461549164800F086FF2A463146234800F081FF039BB342C0F095
:207C6000AB801B2D42D01C2D00F090801A2D40F0A380062E40F0A080A378BB60E27843EA5B
:207C80000223BB60227943EA0243BB60627943EA0263BB60A3793B73E3793B744EE000BF32
:207CA00065802100B26F210069802100DC7F21005A80210087802100A3802100BC80210032
:207CC000E5802100078121001A8121003C8121004C81210069812100C1812100838121005A
:207CE000A1812100DA812100E8050020002E63D0A2781AB3012A5FD1A17904295CDC4B1C2F
:207D000003EB83039E4257D187F82A20E378073487F82B3014F8022C14F8033C43EA0223D7
:207D20000022BB8514F8013C87F82E3007F13003914204F1050403F1060311DC009AB31C6C
:207D4000D31A002B009372DADBF80030002B7FF743AE3E4A3E493F4800F000FF3E4812E793
:207D600014F8045C14F8050C013240EA052023F8060C14F8025C14F8030C40EA052023F8DC
:207D8000040C14F8010C03F8020CD1E7012E01D0192E11D1A378192E7B74CFD107F11202D3
:207DA00004F118012079E378023443EA00238C4222F8023BF6D1C1E7DBF80030002B7FF703
:207DC0000BAE224A2249234800F0C8FE2348DAE6032AC5F30A06C5F3C32509DD4A46204953
:207DE0001C4800F0BBFE2A4631461E4800F0B6FE039BB342E0D3092DDED1002EDCD0A37865
:207E0000012E87F8483099D0E37AA27A42EA0322042AA7F84A2091D802F10C039E428DD129
:207E200004F10C0107F14C000DF0CEF886E77FF457AEDBF80030032B7FF769AE4A460849B5
:207E4000044800F08BFE08485FE600BF5A802100DC7F2100B26F210024822100F6812100F1
:207E600065802100098221005182210070B590B0FFF778FB0446FFF763FB6A460146204693
:207E800000F0D0F9044620B94FF0FF34204610B070BDFFF737FB0028F6D09DF810100C204A
:207EA000FFF722FC08209DF81310FFF71DFC9DF81730434D1BB3BDF81C6000F057F986424C
:207EC00013D04FF6FF73BDF81C209A420DD02B68012BD9DD3B4A3C493C4800F03FFEBDF879
:207EE0001C103B4800F03AFECEE769469DF817000EF0BAF918B969461320FFF703FC122010
:207F000002A9FFF7FFFB9DF81530002B54D19DF81A100720FFF7E8FB9DF81130C3B19DF8FE
:207F200020100D20FFF7E0FBBDF828101020FFF7DBFBBDF82A101120FFF7D6FB9DF821107D
:207F40000E20FFF7D1FB0F209DF83410FFF7CCFB2B68022B9ADD1B4A1E491C4800F0FEFD1A
:207F60009DF810101C4800F0F9FD2B68022B8DDD1220FFF7D3FBFEF757FB2B68022B85DD79
:207F800020200EF09DFA2B68022B7FF77FAF1320FFF7C4FBFEF748FB2B68022B7FF776AF2D
:207FA000FFF7CEFA0546FFF705FB2A46034621460A4800F0D3FD69E74FF6FF71A9E700BF3C
:207FC000E80500205A80210068822100B26F21006D822100AD6F21008782210090822100A2
:207FE00030B591B0054600F0C1F84FF6FF73984202D14FF0FF346AE04022002168460DF019
:20800000BFF83F4B1A782AB901221A70FEF7DCFD3C4B18707DB10720FFF76EFB58B9394CD6
:2080200023780BB90123237007202178FFF75CFB237801332370FFF779FB6A46C1B23248B4
:208040000EF000F8FFF772FB002843D04FF6FF73ADF800301220FFF761FB014602A80DF08E
:20806000B5FEFFF77FFA0E90FFF76AFA0F9068460EF009F9044655B3FFF7A6FA234D88B306
:20808000FFF75AFA014668460EF045F92B68022B1DDD1F4A1F49204800F060FD9DF8101070
:2080A0001E4800F05BFD2B68022B10DD6846FEF7BBFA2B68022B0ADDFFF742FA0546FFF7F3
:2080C00079FA2A4603462146154800F047FD204611B030BD1320FFF721FB014668460DF031
:2080E00075FEB7E72B68002B83DD094A0D490A4800F034FD21460C4800F030FD79E700BF3E
:208100007A2700207B270020F9762000E80500205A802100AD6F2100B26F21009D82210086
:2081200090822100DC7F2100A782210008B500B16AB9094B1B68022B0DDD084A08490948D3
:2081400000F00CFDBDE8084007480EF0ACB9BDE808400DF077BF08BDE80500205A8021009A
:20816000AD6F2100B26F2100C2822100014B1888704700BFDE070020014B1880704700BF5A
:20818000DE07002013B500210446019170B101AA10300DF0B2FF019B43B1074AA38B1288B2
:2081A0009A4206D04FF6FF72934202D0002002B010BD0120FBE700BFDE070020F8B50E4649
:2081C0001546044608B90020F8BD407E40B1022804F108010CBF022708270EF045F828B156
:2081E00046B10F4930460DF0F1FD03E0082FEAD1002EF7D1E07D38B10228214614BF08262C
:2082000002260EF031F828B145B1054928460DF0DDFD03E0082ED6D1002DF7D10120D3E71D
:20822000746F21002DE9F043012906468846144687B003DC002007B0BDE8F08303A90EF0A4
:20824000E9F803AB03CB1B88206123839DF811306161002B71D0B71C02AA01A903A80DF022
:208260004CFF9DF81350002D78D0029B2BB17A7817F8023B03EB02239BB2022DA38360D1A9
:208280003D4620464B490DF0A1FD7B78237015F8023B63709DF81590B9F1000F78D0019B4C
:2082A000002B62D02F466A7817F8023B03EB0223029A9BB2E38302B9A383B9F1020F58D197
:2082C0003D463C4904F108000DF080FD7B78237215F8023B63729DF80D302BB32B7803F032
:2082E000070384F820302B78C3F3C10384F821302978490984F822102A78920984F8232021
:2083000000294FD001357BB15F1E4FEA87094A46294604F12C000CF057FE15F82730A944AB
:2083200084F8343009F10105A81BA8EB00038045C4E90E53FFF67EAF7DE7B378F71CA37654
:208340008AE7032D0FD107F108052B46621E13F8011D9F4202F8011FF9D19BE72046154972
:208360000DF034FDA5833D4694E7A38B2F46E383A3E7B9F1030F13D107F108052B4604F10B
:20838000080213F8011DBB4202F8011BF9D1A2E7084904F108000DF019FDA4F81E909AE718
:2083A0003D4698E7D5F80110012AA16214BF05350635A8E7746F210070B505460C460A4EBA
:2083C000102C07D874B122462B6868680649BDE870401847102231462B686868984710B9DB
:2083E000103CEDE7204670BD368321002DE9F04F0746154600268FB00791079B1B78002B96
:2084000000F0A283079B1A781C460133002A00F08B83252AF7D1079B9C4205D087E32378E4
:208420004644002B00F090836278631C002A00F08B830024184610F8012B19462B2A17D0B2
:208440000BD8202A17D0232A18D0A2F1310CBCF1080F3FD84FF0000A18E02D2A04D0302A62
:20846000F3D144F0100401E044F001040346E1E744F00604FAE744F00204F7E744F008044E
:20848000F4E70A2101FB0A2AAAF1300A194613F8012BA2F130000928F3D90B782E2B37D197
:2084A0004A784B1CA2F13000092829D84FF000081A781946A2F13000092803F1010319D988
:2084C0000B786C2B6FD14B786C2B24D144F08004023123E02A2A0AD1D5F800A00146BAF177
:2084E000000F05F10405B8BF44F00104D5E74FF0000AD2E70A2101FB0828A8F13008D7E71A
:208500002A2A04D1D5F8008002310435D8E719464FF0FF38D4E7013144F060040B78782B3A
:208520000CD8572B51D8472B08D8402B00F29680002B00F00983252B00F0D9804B1C0793A6
:2085400004F4E063B3F5A06F00F0CF8200F2D280B3F5407F00F07882B3F5806F00F03C820E
:20856000B3F5807F7FF449AFB8F1000FACBF24F010044FF0010814F4005204F0E00306928D
:2085800000F0F080402B00F0E68000F2C880002B00F0E480202B00F0CD8000220023CDE97E
:2085A00000230023D5E0682B09D14B78682B02D144F020048CE7013144F04004AEE77A2B7B
:2085C00004BF44F060040131A8E7583B202BB5D801A252F823F000BFA18620003D8520002C
:2085E0003D8520003D8520003D8520003D8520003D8520003D8520003D852000CB862000DC
:208600003D852000D786200089862000B3862000A7862000BF8620003D85200089862000B0
:208620003D8520003D8520003D8520003D852000E986200095862000E38620003D8520007D
:208640003D852000DD8620003D8520008F8620003D8520003D8520009B862000413B062BEC
:208660003FF66CAF01A252F823F000BFD18620003D8520003D8520003D852000B98620006F
:20868000AD862000C586200044F4245456E744F4106453E744F4885450E744F4C8544DE776
:2086A00044F4B2444AE744F4007447E744F4844444E744F4024441E744F442443EE744F495
:2086C00081343BE744F4A13438E744F4C13435E744F4E13432E744F4A0642FE744F480647A
:2086E0002CE744F4407429E744F4E06426E744F4C06423E7B3F5C06F07D0B3F5E06F7FF464
:208700007CAE2B6804351E6077E601223B68A94978689847002840F0158201366DE6602B0D
:208720001CD0802B7FF439AF073525F00705F5E8022303E095F90020D3170435002A73F1A6
:208740000001BFF62CAF524263EB4303CDE900230123039317E0B5F90020EDE72A68043569
:20876000D317EBE7402B00F0B08000F29A80002B00F0AD80202B00F0A180069B00220393A9
:208780000023CDE9002304F4C053B3F5805F00F0D580B3F5C05F00F0D680B3F5006F00F0F2
:2087A000B78000230DF1360B0493049B41F20802984588BFA8EB030841F6080304EA0301B7
:2087C00098BF4FF0000891421A4604D1B8F1010F38BF4FF00108049B914203EB080040F063
:2087E000CC80DDE90023134300F0C780724914F4804F724B4FF0020918BF0B46069A72B133
:20880000039A002A40F0BD8004F00602022A00F0BC80062A6A4A04BF4FF00109134609EB93
:208820000002924594BF4FF0000AAAEB020A14F00102009204D1E10640F1AB80D044924685
:20884000B9F1000F07D04A4619463C687868A047002840F077814446049B1E44102C594975
:20886000D7E9003000F29F802CB1224655499847002840F0678159463B68049A78684E44A3
:208880009847002840F05E81009B4644002B00F0D48051463846FFF78FFD002800F0CD8032
:2088A00050E1602B13D0802B7FF467AF073525F00705F5E80223CDE9002304E02A78002304
:2088C000CDE900230435069B43E72A88F7E72B68002219460435CDE90012F4E7DDE9040170
:2088E0000A2200230CF0BCF9DDE9040130320BF8012D00230A220CF0B3F9CDE90401DDE9A2
:2089000004231343EAD10DF13603A3EB0B034BE7DDE900230DF1360BCDE90423EFE702F04D
